:020000040000FA
:10000000000000EB250000EB2C008FE2000C90E8D4
:1000100000A08AE000B08BE001704AE20B005AE1D8
:100020000000001A1D0000EB0F00BAE818E04FE2D4
:10003000010013E303F0471013FF2FE1DC01000080
:10004000EC0100000030B0E30040B0E30050B0E34A
:100050000060B0E3102052E27800A128FCFFFF8A84
:10006000822EB0E13000A128003081451EFF2FE133
:1000700001C08FE21CFF2FE11FB500F0C9F8059801
:1000800086460FBC009C02B07047000001C08FE2A2
:100090001CFF2FE130B47546AE4630BC70470000FF
:1000A000350000EB0210A0E1F0FFFFEB1CC09FE564
:1000B0000FC08CE001001CE30DE08F120FE0A001E7
:1000C0001CFF2FE101C08FE21CFF2FE100F086F83A
:1000D000480000007847C046EBFFFFEB440000EB10
:1000E0000C009FE50C109FE504209FE508309FE57C
:1000F0001EFF2FE1600000406004004060000040EF
:1001000068109FE5081091E5012BE0E3021081E102
:1001100058209FE5081082E50210A0E1081091E543
:10012000041081E3081082E50F0000EA3C109FE50F
:10013000001091E5010B01E2010B50E30500001AEC
:1001400028109FE50C1091E5041081E31C209FE529
:100150000C1082E5040000EA10109FE5041091E500
:10016000041081E304209FE5041082E5EEFFFFEA1E
:10017000008002E070477047704700000E50A0E119
:10018000180000EB05E0A0E10050B0E10D10A0E187
:100190000A30A0E10700C0E300D0A0E160D08DE20A
:1001A00020402DE9CDFFFFEB2040BDE80060A0E33B
:1001B0000070A0E30080A0E300B0A0E30710C1E35B
:1001C00005C0A0E1C009ACE8C009ACE8C009ACE8D2
:1001D000C009ACE801D0A0E11EFF2FE10400C04639
:1001E000C0462000FFF776FF00009FE51EFF2FE1CD
:1001F000000000400C109FE51800A0E3563412EFF9
:100200001EFF2FE108000000260002001EFF2FE164
:100210007847C0461EFF2FE1280200000000004082
:08022000E804000044000000A6
:0400000500000000F7
:00000001FF
