:020000040000FA
:10000000000000EB250000EB2C008FE2000C90E8D4
:1000100000A08AE000B08BE001704AE20B005AE1D8
:100020000000001A1D0000EB0F00BAE818E04FE2D4
:10003000010013E303F0471013FF2FE1D401000088
:10004000E40100000030B0E30040B0E30050B0E352
:100050000060B0E3102052E27800A128FCFFFF8A84
:10006000822EB0E13000A128003081451EFF2FE133
:1000700001C08FE21CFF2FE11FB500F0C5F8059805
:1000800086460FBC009C02B07047000001C08FE2A2
:100090001CFF2FE130B47546AE4630BC70470000FF
:1000A000330000EB0210A0E1F0FFFFEB1CC09FE566
:1000B0000FC08CE001001CE30DE08F120FE0A001E7
:1000C0001CFF2FE101C08FE21CFF2FE100F082F83E
:1000D000480000007847C046EBFFFFEB420000EB12
:1000E0000C009FE50C109FE504209FE508309FE57C
:1000F0001EFF2FE1600000406004004060000040EF
:1001000060009FE5180090E50108C0E354109FE5EA
:10011000180081E50100A0E1080090E5010B80E3F3
:10012000080081E50E0000EA38009FE5100090E528
:10013000010810E30500001A28009FE50C0090E577
:10014000010B80E31C109FE50C0081E5040000EA30
:1001500010009FE5040090E5010B80E304109FE58B
:10016000040081E5EFFFFFEA008002E0704770477E
:10017000704700000E50A0E1180000EB05E0A0E180
:100180000050B0E10D10A0E10A30A0E10700C0E38B
:1001900000D0A0E160D08DE220402DE9CFFFFFEB41
:1001A0002040BDE80060A0E30070A0E30080A0E371
:1001B00000B0A0E30710C1E305C0A0E1C009ACE8AE
:1001C000C009ACE8C009ACE8C009ACE801D0A0E1C6
:1001D0001EFF2FE10400C046C0462000FFF77AFF53
:1001E00000009FE51EFF2FE1000000400C109FE57E
:1001F0001800A0E3563412EF1EFF2FE108000000A4
:10020000260002001EFF2FE17847C0461EFF2FE1A7
:100210002002000000000040E8040000440000004C
:0400000500000000F7
:00000001FF
